:10015E001201DE1200FD7513008F14E514640145C3
:10016E001370370517E5177002051653170375162A
:10017E0000E51745167002F512E517640145167075
:10018E0003751205E517640245167003751228E50E
:10019E0017640345167003751264AD17AC167F0114
:0501AE0012009A80AE72
:03000B000201B33C
:1001B300C0E0C0F0C0D0758AA4758CFF0515E515A5
:1001C30075F0648485F015E515C395125004C2904B
:0B01D3008002D290D0D0D0F0D0E032FB
:1001F500EF1FAC0670011E4C600A7D027CC7DCFE59
:04020500DDFC80ECB0
:0102090022D2
:1000FD00E4F51820B1137F14FE1201F530B1FD7F28
:10010D00147E001201F575180120B0147F147E00C5
:10011D001201F530B0FD7F147E001201F575180245
:10012D0020B2147F147E001201F530B2FD7F147ED3
:10013D00001201F575180320B3147F147E0012010F
:10014D00F530B3FD7F147E001201F5751804AF185C
:01015D00227F
:0C020A000A083F065B4F666D7D077F6FA2
:10009A00EF14B4080050549000AF75F003A4C58360
:1000AA0025F0C583730200C70200CB0200CF02000D
:1000BA00D30200D70200DF0200E70200EFD2A480D9
:1000CA000ED2A48012D2A48016D2A4801AC2A4D2BC
:1000DA00A3D2A28016C2A4D2A3C2A2800EC2A4C274
:1000EA00A3D2A28006C2A4C2A3C2A274082DF8E6B3
:0300FA00F580226C
:1001DE005389F0438901758AA4758CFFC28DD28C28
:0701EE00D2A9D2AFC2B92271
:0300000002000EED
:0C000E00787FE4F6D8FD758118020055DB
:10001A0002015EE493A3F8E493A34003F68001F29D
:10002A0008DFF48029E493A3F85407240CC8C333E7
:10003A00C4540F4420C8834004F456800146F6DFB6
:10004A00E4800B010204081020408090020AE47E3A
:10005A00019360BCA3FF543F30E509541FFEE493AB
:10006A00A360010ECF54C025E060A840B8E493A372
:10007A00FAE493A3F8E493A3C8C582C8CAC583CA9D
:10008A00F0A3C8C582C8CAC583CADFE9DEE780BE55
:0102160000E7
:00000001FF
