:10024C0075A0FE12026C1201978F0AE50A60F7B4D2
:10025C0001F4050BE50BC3940240EBE4F50B80E6CF
:03000B000201F8F7
:0B01F800C0E0C0D075D000C000C00700
:10020300758A66758CFC0509E50970020508C394B7
:10021300F4E50894014029750800750900E50B70A1
:100223000DAFA07801EF08800123D8FDF5A0E50B01
:10023300B4010DAFA07801EF08800103D8FDF5A04C
:09024300D007D000D0D0D0E03289
:10026C005389F0438901758A66758CFCC28DD28CDA
:07027C00D2A9D2AFC2B922E2
:10000E00E4F50C7590FFC2932097137F14FE120235
:10001E00833097FD7F147E00120283750C012096AB
:10002E00147F147E001202833096FD7F147E001220
:10003E000283750C052095147F147E001202833006
:10004E0095FD7F147E00120283750C092094147F97
:10005E00147E001202833094FD7F147E0012028300
:10006E00750C0D7590FFC2922097147F147E0012AE
:10007E0002833097FD7F147E00120283750C0220DE
:10008E0096147F147E001202833096FD7F147E003C
:10009E00120283750C062095147F147E00120283C3
:1000AE003095FD7F147E00120283750C0A20941485
:1000BE007F147E001202833094FD7F147E001202A4
:1000CE0083750C0E7590FFC2912097147F147E00DD
:1000DE001202833097FD7F147E00120283750C038B
:1000EE002096147F147E001202833096FD7F147EBC
:1000FE0000120283750C072095147F147E001202E5
:10010E00833095FD7F147E00120283750C0B2094B4
:10011E00147F147E001202833094FD7F147E001231
:10012E000283750C0F7590FFC2902097147F147E7A
:10013E00001202833097FD7F147E00120283750C2D
:10014E00042096147F147E001202833096FD7F14D5
:10015E007E00120283750C082095147F147E001207
:10016E0002833095FD7F147E00120283750C0C20E5
:10017E0094147F147E001202833094FD7F147E004F
:08018E00120283750C10AF0C86
:010196002246
:10028300EF1FAC0670011E4C600A7D027CC7DCFECA
:04029300DDFC80EC22
:010297002244
:10019700E4F50D20B1137F14FE12028330B1FD7F09
:1001A700147E00120283750D0120B0147F147E00A7
:1001B70012028330B0FD7F147E00120283750D0298
:1001C70020B2147F147E0012028330B2FD7F147EAA
:1001D70000120283750D0320B3147F147E001202F0
:1001E7008330B3FD7F147E00120283750D04AF0DBB
:0101F70022E5
:0300000002029861
:0C029800787FE4F6D8FD75810D02024C61
:00000001FF
