:100209000004000400041602180219061802190451
:100219001D04180C11021102160614021604190401
:10022900140C110412061102120419041108000217
:0F0239001902190219021806130212041804FF01
:10015E00204A0D0000F921F980F9DFFA35FA8BFA01
:10016E00D6FB22FB67FBA8FBE8FC22FC5EFC8EFCA8
:10017E00BFFCEEFD1AFD44FD6BFD90FDB3FDD4FDFD
:10018E00F4FE11FE2DFE46FE5FFE76FE8DFEA2FEF5
:0D019E00B5FEC7FED9FEEAFEF9FF08FF1608
:1001B8001202907409250AF58274023509F583E460
:1001C80093FFF46038750B008F0C050AE50A70027E
:1001D80005092409F58274023509F583E49375F05D
:1001E8007DA4FFAEF01202A7050AE50A7002050910
:1001F800C28C7F057E001202A7D28C80B6C28C808A
:01020800FEF7
:03000B00020248A6
:10024800C0E0C0D075D000C000C006E50C25E02491
:100258000DF8E6FE08E6F58AEEF58CB2A5D006D0D4
:0602680000D0D0D0E0320E
:1002A700EF1FAC0670011E4C600A7D027CC7DCFEA6
:0402B700DDFC80ECFE
:0102BB002220
:1000FD00E4F56120B1137F14FE1202A730B1FD7F2C
:10010D00147E001202A775610120B0147F147E00C9
:10011D001202A730B0FD7F147E001202A775610296
:10012D0020B2147F147E001202A730B2FD7F147E20
:10013D00001202A775610320B3147F147E00120212
:10014D00A730B3FD7F147E001202A7756104AF6165
:01015D00227F
:0C01AB000A573F065B4F666D7D077F6FB3
:10009A00EF14B4080050549000AF75F003A4C58360
:1000AA0025F0C583730200C70200CB0200CF02000D
:1000BA00D30200D70200DF0200E70200EFD2A480D9
:1000CA000ED2A48012D2A48016D2A4801AC2A4D2BC
:1000DA00A3D2A28016C2A4D2A3C2A2800EC2A4C274
:1000EA00A3D2A28006C2A4C2A3C2A274572DF8E664
:0300FA00F580226C
:05000300007FE3DFFEB9
:0100080022D5
:04026E00AD07AC0626
:10027200E4FBFAED25E0FFEC33FEC3EB9FEA9E5070
:0D0282000CB2A51200030BBB00010A80E6C0
:01028F00224C
:100290005389F0438901758A66758CFCC28DD28CB6
:0702A000D2A9D2AFC2B922BE
:0300000002000EED
:0C000E00787FE4F6D8FD75816102005592
:10001A000201B8E493A3F8E493A34003F68001F243
:10002A0008DFF48029E493A3F85407240CC8C333E7
:10003A00C4540F4420C8834004F456800146F6DFB6
:10004A00E4800B010204081020408090015EE47EE7
:10005A00019360BCA3FF543F30E509541FFEE493AB
:10006A00A360010ECF54C025E060A840B8E493A372
:10007A00FAE493A3F8E493A3C8C582C8CAC583CA9D
:10008A00F0A3C8C582C8CAC583CADFE9DEE780BE55
:0101B7000047
:00000001FF
