:0A045E004D61747269784B657900F6
:03047C000122005A
:10038A0012043B7BFF7A04795E7D027F011203B27D
:10039A001200038F22E52260F7FB7A00750C027DBA
:0803AA00017F021203F380E859
:10042600EF1FAC0670011E4C600A7D027CC7DCFE25
:04043600DDFC80EC7D
:01043A00229F
:06044F00C2A58F80D2A7B8
:080455007F027EEFDEFEDFFCFA
:01045D00227C
:0A046800C2A612044FC2A7020455F9
:1003D500CFCDCFCECCCE1201CB7C007D0A1201CB86
:0403E500ED2430FFD4
:0A03E900D2A612044FC2A702045569
:10041000AE07BE0104ED148006BE0209ED243F4480
:0604200080FF12046822B7
:10043B007F381204687F0C1204687F061204687FF1
:04044B00010204683E
:0A047200AC03120410AF040203E90A
:0603B2008B088A09890A8C
:1003B800120410E4FDAB08AA09A90A8D827583000E
:0C03C80012018CFF60061203E90D80E9B1
:0103D4002206
:0C0357007F0AEA24FFFDE434FFFC7E0076
:080363008E0D8F0E8C0F8D1022
:10036B007F017E00E4FBEBC39510E50F6480F8740E
:0E037B008098500AAC0DAD0E1201B90B80E84F
:010389002251
:0403F3008A0A8B0BDC
:1003F700120410AA0CEAD39400400D120357AC0A5A
:08040700AD0B1203D51A80EDC4
:01040F0022CA
:1002AC00120410C3EA64809480400B7F2B1203E984
:1002BC008A168B17800E7F2D1203E9C3E49BF5176A
:1002CC00E49AF516AA15EAD39400400D120357AC24
:0902DC0016AD171203D51A80EDCE
:0102E50022F6
:0402E6008A1A8B1BCA
:1002EA00120410AA1CEAD3940040297F1012035961
:1002FA00AC1AAD1BCFCDCFCECCCE1201CBEF540F63
:10030A00FEC3940AEE5004243080022437FF1203FD
:04031A00E91A80D18B
:01031E0022BC
:04031F008A1F8B2086
:10032300120410AA21EAD394004028EA24FFFDE432
:1003330034FFFC7F027E00120363AC1FAD20CFCDE0
:10034300CFCECCCE1201CBEF54012430FF1203E900
:030353001A80D23B
:010356002284
:10000300E4F5087590FFC2932097137F14FE120442
:10001300263097FD7F147E00120426750801209672
:10002300147F147E001204263096FD7F147E001286
:1000330004267508052095147F147E0012042630CB
:1000430095FD7F147E001204267508092094147F01
:10005300147E001204263094FD7F147E00120426C1
:1000630075080D7590FFC2922097147F147E0012BD
:1000730004263097FD7F147E0012042675080220A3
:1000830096147F147E001204263096FD7F147E00A2
:100093001204267508062095147F147E0012042688
:1000A3003095FD7F147E0012042675080A209414EF
:1000B3007F147E001204263094FD7F147E00120408
:1000C3002675080E7590FFC2912097147F147E0049
:1000D3001204263097FD7F147E0012042675080350
:1000E3002096147F147E001204263096FD7F147E22
:1000F300001204267508072095147F147E0012044D
:10010300263095FD7F147E0012042675080B20947B
:10011300147F147E001204263094FD7F147E001297
:10012300042675080F7590FFC2902097147F147EE4
:10013300001204263097FD7F147E001204267508F2
:10014300042096147F147E001204263096FD7F143B
:100153007E001204267508082095147F147E001271
:1001630004263095FD7F147E0012042675080C20AA
:1001730094147F147E001204263094FD7F147E00B5
:08018300120426750810AF08F4
:01018B002251
:03000000020220D9
:0C022000787FE4F6D8FD758122020267A9
:10018C00BB010CE58229F582E5833AF583E0225028
:10019C0006E92582F8E622BBFE06E92582F8E22272
:0D01AC00E58229F582E5833AF583E493228C
:1001B900EF8DF0A4A8F0CF8CF0A428CE8DF0A42E5A
:0201C900FE2214
:1001CB00BC000BBE0029EF8DF084FFADF022E4CC18
:1001DB00F875F008EF2FFFEE33FEEC33FCEE9DECE1
:1001EB00984005FCEE9DFE0FD5F0E9E4CEFD22ED27
:1001FB00F8F5F0EE8420D21CFEADF075F008EF2F71
:10020B00FFED33FD4007985006D5F0F222C398FD61
:05021B000FD5F0EA22FE
:10022C0002038AE493A3F8E493A34003F68001F25B
:10023C0008DFF48029E493A3F85407240CC8C333D3
:10024C00C4540F4420C8834004F456800146F6DFA2
:10025C00E4800B010204081020408090047CE47EB2
:10026C00019360BCA3FF543F30E509541FFEE49397
:10027C00A360010ECF54C025E060A840B8E493A35E
:10028C00FAE493A3F8E493A3C8C582C8CAC583CA89
:10029C00F0A3C8C582C8CAC583CADFE9DEE780BE41
:01047F00007C
:00000001FF
