:10097400543A0054483A00544C3A004F563A48000E
:0A0984004F563A4C002020202000BE
:10046D00120A387FE87E03120A00E4FF1207F98FA3
:10047D000F7F011207F98F0AD3E50F648094FD50A9
:10048D0016C3E50A64809449400DD3E50A6480F8EB
:10049D00E50F6480985006750F14750A0F120A1532
:1004AD007BFF7A0979747D017F011208A17BFF7AA8
:1004BD000979777D017F021208A17BFF7A09797B8B
:1004CD007D097F021208A1E50FFB3395E0FA75193E
:1004DD00037D047F021206E2E50AFB3395E0FA750F
:1004ED0019037D0C7F021206E21209A7120A848FEE
:1004FD0010120A381208298F0E8E0D8D0C8C0BE4FC
:10050D00FFFEFDFCAB0EAA0DA90CA80B1201B450F9
:10051D001E7B2D7D037F01120A67AF0EAE0DAD0C54
:10052D00AC0B12022D8F148E138D128C1180157B36
:10053D002B7D037F01120A67850E14850D13850C23
:10054D0012850B11AF14AE13AD12AC1112027CABB0
:10055D0007AA067519037D047F0112091E7B2E7DE6
:10056D00077F01120A67E4FFFE7DC87C42AB14AA27
:10057D0013A912A81112000E12027CE47B64FAF981
:10058D00F81203CD7519027D087F0112091EE510C1
:10059D00700302063AB4010E050FD3E50F64809483
:1005AD00FD4003750F7DE510B40211150FD3E50A5B
:1005BD006480F8E50F6480985002050FE510B403D0
:1005CD0011050AC3E50F6480F8E50A6480984002BE
:1005DD00150AE510B4040E150AC3E50A64809449A2
:1005ED005003750AC9E50FFB3395E0FA7519037DC4
:1005FD00047F021206E2E50AFB3395E0FA75190352
:10060D007D0C7F021206E2E50FFD3395E0FCE4FF61
:10061D0012087D7F057E00120A00E50AFD3395E084
:10062D00FC7F0112087D7F057E00120A00AC0FECE5
:10063D00120248AB0EAA0DA90CA80B1201B4600A48
:10064D0040087BFF7A09797F8019AC0AEC120248C9
:10065D00AB0EAA0DA90CA80B1201B450107BFF7A9A
:10066D000979847D0D7F011208A10204F97BFF7ABF
:0D067D000979897D0D7F011208A10204F9A1
:03000B0002068A60
:10068A00C0E0C0F0C083C082C0D075D000C000C036
:0D069A0001C002C003C004C005C006C007B7
:1006A700758A66758CFC0509E50970020508C3940F
:1006B70014E50894004009750800750900120755EC
:1006C700D007D006D005D004D003D002D001D00087
:0B06D700D0D0D082D083D0F0D0E03231
:100A0000EF1FAC0670011E4C600A7D027CC7DCFE45
:040A1000DDFC80EC9D
:010A140022BF
:060A2900C2A58F80D2A7D8
:080A2F007F027EEFDEFEDFFC1A
:010A3700229C
:0A0A5D00C2A6120A29C2A7020A2F3E
:1008C400CFCDCFCECCCE12033C7C007D0A12033CAC
:0408D400ED2430FFE0
:0A08D800D2A6120A29C2A7020A2FB5
:1009BE00AE07BE0104ED148006BE0209ED243F44CD
:0609CE0080FF120A5D2209
:100A15007F38120A5D7F0C120A5D7F06120A5D7F20
:040A250001020A5D63
:0A0A6700AC031209BEAF040208D868
:0608A1008B158A16891771
:1008A7001209BEE4FDAB15AA16A9178D8275830040
:0C08B7001202FDFF60061208D80D80E957
:0108C3002212
:0C07C6007F0AEA24FFFDE434FFFC7E0003
:0807D2008E1C8F1D8C1E8D1F73
:1007DA007F017E00E4FBEBC3951FE51E6480F8747D
:0E07EA008098500AAC1CAD1D12032A0B80E84B
:0107F80022DE
:04091E008A178B1891
:100922001209BEAA19EAD39400400D1207C6AC17E9
:08093200AD181208C41A80ED93
:01093A00229A
:1006E2001209BEC3EA64809480400B7F2B1208D8A3
:1006F2008A1A8B1B800E7F2D1208D8C3E49BF51B30
:10070200E49AF51AAA19EAD39400400D1207C6AC6E
:090712001AAD1B1208C41A80ED97
:01071B0022BB
:04071C008A228B237F
:100720001209BEAA24EAD3940040297F101207C8F8
:10073000AC22AD23CFCDCFCECCCE12033CEF540FA5
:10074000FEC3940AEE5004243080022437FF1208BE
:04075000D81A80D162
:010754002282
:04078E008A278B2803
:100792001209BEAA29EAD394004028EA24FFFDE404
:1007A20034FFFC7F027E001207D2AC27AD28CFCDEA
:1007B200CFCECCCE12033CEF54012430FF1208D826
:0307C2001A80D2C8
:0107C5002211
:0D0A38001208E27FCC12098E7F4402098E65
:100829001208E27FCC12098E7FBE12098E12093B93
:100839008F1512093BEFFEE515FFFDAC06EC120220
:0B08490043E4FBFA79807841020117BC
:1008E200C2AFD2B7C2B77FE3DFFED2B77F1DDFFE52
:0D08F200A2B7E433FE7FE3DFFED2AFAF0616
:0108FF0022D6
:1009D400C2AFC2B77E03DEFEEF24FF92B77E16DEFF
:0509E400FED2B7D2AF06
:0109E90022EB
:10095800C2AFC2B77F01DFFED2B77F01DFFEA2B709
:0B096800E433FE7F14DFFED2AFAF06C9
:010973002261
:02098E00AD07B3
:10099000E4FCA8047401088002C333D8FC5DFF1294
:0609A00009D40CBC08ECB8
:0109A600222E
:10093B00E4FDFC120958EF600DA804740108800255
:0C094B00C333D8FC42050CBC08E9AF0522
:01095700227D
:10087D008F158C168D17120A7B7FA0120854120A41
:10088D0045AF15120854120A45AF17120854120A33
:04089D00450200030D
:0207F9008F155A
:1007FB00120A7B7FA0120854120A45AF1512085437
:10080B00120A45120A7B7FA1120854120A451209DB
:0D081B00008F167F01120A71120003AF1644
:0108280022AD
:090A7B00D2A0D2A1C2A0C2A122A6
:07000300C2A0D2A1D2A0228D
:02085400AD07EE
:10085600E4FB7E007480A803088006CEA2E713CED0
:1008660013D8F8FFEDF582EF558224FF92A0D2A1AE
:06087600C2A10BBB08DC6F
:01087C002259
:10090000E4FFD2A0FED2A130A00DA806748008801A
:0D09100002C313D8FC4207C2A10EBE08E8C6
:01091D0022B7
:0A0A7100EF24FF92A0D2A1C2A1223F
:0B0A4500D2A0D2A1A2A0E433FFC2A106
:010A50002283
:050A8400E4AF2CF52C8D
:010A8900224A
:1009EA00E4FF20B1010F20B0027F0220B2027F0390
:0509FA0020B3027F04A0
:0109FF0022D5
:10075500852A2B1209EA8F2AE52BB40107E52A70B1
:1007650003752C01E52BB40207E52A7003752C02ED
:10077500E52BB40307E52A7003752C03E52BB404B8
:0807850007E52A7003752C043E
:01078D002249
:1009A7005389F0438901758A66758CFCC28DD28C98
:0709B700D2A9D2AFC2B922A0
:10000E00EC4D6011E8497017ED33EC3304600DE4EC
:10001E00FCFFFEFD22E933E8330470F80202E81219
:10002E0002B358046009E4CC24815006285009021A
:10003E0002F22840030202EFC0E0EB4A7044B9809E
:10004E0006D0E0FB0202DEEF4E701CBD8008EBFF17
:10005E00EAFEE9FD80EBE98DF0A4FEE5F00200F783
:10006E00E9CDF9EAFEEBFFEF89F0A4FCE5F0CE89CD
:10007E00F0A42EFFE435F0CD89F0A42DFEE435F08A
:10008E008067EF4E7005BD80D780C3EF8BF0A4ACB8
:10009E00F0EE8BF0A42CFCE435F0F8EF8AF0A42CF3
:1000AE00E5F038FCE433CB8DF0A42CFCE5F03BF806
:1000BE00EE8AF0A42CFCE5F038F8E433CF89F0A4F6
:1000CE002CFCE5F038CF3400CE89F0A42FFFE5F0FC
:1000DE003EFEE433C98DF0A42EFEE5F039CD8AF054
:1000EE00A42FFFE5F03EFEE43DFD33D0E0FB5007CC
:1000FE000BBB000F0202F2EC2CFCEF33FFEE33FED3
:06010E00ED33FD0202CA00
:100114000202F2EC5D046005E8590470030202E88F
:100124001202B3580460F6EC4860F2EC7004FDFE71
:10013400FF22C860DB2481C85009C39860025006BE
:100144000202EF9850CAF582E9294B4A7005AB8246
:100154000202DE75F0007C1A7880C3EF9BEE9AED04
:1001640099400DC3EF9BFFEE9AFEED99FDE842F036
:10017400DC23ACF0D0E0FFD0E0FED0E0FDAB822089
:10018400E7101BEB60BAEC2CFCEF33FFEE33FEED13
:1001940033FD0202CAE803F830E705C0F075F00049
:1001A400EF2FFFEE33FEED33FD40B830E7C280AAF7
:1001B40074F8CC6480CCC86480C8F58204604FC3F2
:1001C400EB9FF5F0EA9E42F0E99D42F0E89C45F091
:1001D400603C501DE5825FFFE582D313CB5BCBF41B
:1001E4002B5582FB50280ABA002409B90020088044
:1001F4001DE5825BFBE582D313CF5FCFF4C3132FDE
:100204005582FF50090EBE00050DBD00010CC3EB65
:100214009FF5F0EA9E42F0E99D42F0E89C45F060CB
:0902240007CC4820E701B3EC22ED
:10022D00ED33EC33600A047003BD8004ECB2E7FCDF
:01023D00229E
:10023E0075F020800E75F010800575F0087D007E3B
:10024E00007F003392D530D50312045FEC3340109B
:10025E00EF33FFEE33FEED33FDEC33FCD5F0ED2244
:0E026E00E5F0247EA2D513CC92E7CDCEFF2280
:10027C00EDD2E7CD33EC3392D524814006E4FFFE7A
:10028C00FDFC22FCE4CFCECDCC24E0501174FF80D9
:10029C00EDC3CC13CCCD13CDCE13CECF13CF047076
:0702AC00F030D5DE02045F13
:1002B300E9D2E7C933E833F892D5EDD2E7CD33EC91
:0702C30033FC5002B2D5220A
:1002CA00EC30E7100FBF000C0EBE00080DBD000495
:1002DA000BEB6014A2D5EB13FCED92E7FD2274FF41
:1002EA00FCFDFEFF22E480F8A2D574FF13FC7D809A
:0302FA00E480EFAE
:03000000020A51A0
:0C0A5100787FE4F6D8FD75812C02046D5E
:1002FD00BB010CE58229F582E5833AF583E02250B6
:10030D0006E92582F8E622BBFE06E92582F8E222FF
:0D031D00E58229F582E5833AF583E4932219
:10032A00EF8DF0A4A8F0CF8CF0A428CE8DF0A42EE7
:02033A00FE22A1
:10033C00BC000BBE0029EF8DF084FFADF022E4CCA5
:10034C00F875F008EF2FFFEE33FEEC33FCEE9DEC6E
:10035C00984005FCEE9DFE0FD5F0E9E4CEFD22EDB4
:10036C00F8F5F0EE8420D21CFEADF075F008EF2FFE
:10037C00FFED33FD4007985006D5F0F222C398FDEF
:05038C000FD5F0EA228C
:1003910075F008758200EF2FFFEE33FECD33CDCC23
:1003A10033CCC58233C5829BED9AEC99E5829840A6
:1003B1000CF582EE9BFEED9AFDEC99FC0FD5F0D683
:1003C100E4CEFBE4CDFAE4CCF9A88222B800C1B9AD
:1003D1000059BA002DEC8BF084CFCECDFCE5F0CBEB
:1003E100F97818EF2FFFEE33FEED33FDEC33FCEB24
:1003F10033FB10D703994004EB99FB0FD8E5E4F9DF
:10040100FA227818EF2FFFEE33FEED33FDEC33FCCB
:10041100C933C910D7059BE99A4007EC9BFCE99ABF
:10042100F90FD8E0E4C9FAE4CCFB2275F010EF2F04
:10043100FFEE33FEED33FDCC33CCC833C810D70704
:100441009BEC9AE899400AED9BFDEC9AFCE899F83F
:0E0451000FD5F0DAE4CDFBE4CCFAE4C8F922D2
:0E045F00C3E49FFFE49EFEE49DFDE49CFC22AE
:00000001FF
