:10000300000000000000000081FF810010387C7EAA
:100013003F3F7E7C381000FF000E11110E00100EC2
:10002300010E10000E15150C00001D051F000E110A
:10003300110E001E01011E0100000000000000005F
:10004300E4F509F50A1200F1E4F508E5082509903D
:10005300000393FD7C00AF081200AE0508E508C35A
:10006300940840E7050AE50AD3940A40DBE4F50A5D
:0E0073000509E509D3943840CFE4F50980CAA9
:1000D000EF1FAC0670011E4C600A7D027CC7DCFE7F
:0400E000DDFC80ECD7
:0100E40022F9
:02008100AD07C9
:10008300E4FB7E007480A803088006CEA2E713CEAB
:1000930013D8F8FFEDF582EF558224FF92B4D2B660
:0A00A300C2B60BBB08DCD2B5C2B533
:0100AD002230
:0500F100C2B6C2B522F9
:1000AE00AA07AF05120081AF02A80774800880026C
:1000BE00C313D8FCF4F5807F017E001200D075804A
:0200CE00FF220F
:030000000200E516
:0C00E500787FE4F6D8FD75810A02004324
:00000001FF
