:10015E001201BAE4F5148514127F0A7E001201D141
:10016E000514E514C3946440ED751464E514D3943A
:10017E000040E08514127F0A7E001201D115148012
:01018E00EB85
:03000B0002018F60
:10018F00C0E0C0F0C0D0758AA4758CFF0513E513CD
:10019F0075F0648485F013E513C395125004C29073
:0B01AF008002D290D0D0D0F0D0E0321F
:1001D100EF1FAC0670011E4C600A7D027CC7DCFE7D
:0401E100DDFC80ECD5
:0101E50022F7
:1000FD00E4F51520B1137F14FE1201D130B1FD7F4F
:10010D00147E001201D175150120B0147F147E00EC
:10011D001201D130B0FD7F147E001201D175150290
:10012D0020B2147F147E001201D130B2FD7F147EF7
:10013D00001201D175150320B3147F147E00120136
:10014D00D130B3FD7F147E001201D1751504AF15AA
:01015D00227F
:0C01E6000A083F065B4F666D7D077F6FC7
:10009A00EF14B4080050549000AF75F003A4C58360
:1000AA0025F0C583730200C70200CB0200CF02000D
:1000BA00D30200D70200DF0200E70200EFD2A480D9
:1000CA000ED2A48012D2A48016D2A4801AC2A4D2BC
:1000DA00A3D2A28016C2A4D2A3C2A2800EC2A4C274
:1000EA00A3D2A28006C2A4C2A3C2A274082DF8E6B3
:0300FA00F580226C
:1001BA005389F0438901758AA4758CFFC28DD28C4C
:0701CA00D2A9D2AFC2B92295
:0300000002000EED
:0C000E00787FE4F6D8FD758115020055DE
:10001A0002015EE493A3F8E493A34003F68001F29D
:10002A0008DFF48029E493A3F85407240CC8C333E7
:10003A00C4540F4420C8834004F456800146F6DFB6
:10004A00E4800B01020408102040809001E6E47E5F
:10005A00019360BCA3FF543F30E509541FFEE493AB
:10006A00A360010ECF54C025E060A840B8E493A372
:10007A00FAE493A3F8E493A3C8C582C8CAC583CA9D
:10008A00F0A3C8C582C8CAC583CADFE9DEE780BE55
:0101F200000C
:00000001FF
