:10000E0012057D1206348F28E528B4010CE5277001
:10001E00047F0180027F008F27E528B40207E4F5F4
:10002E0025F524F526E52864037033E525FD7C00CF
:10003E00E4FF1204A57F057E001205C0E524FD7CB9
:10004E00007F011204A57F057E001205C0E526FD86
:10005E007C007F021204A57F057E001205C0E528F4
:10006E00B40415E4FF1204258F257F011204258F99
:10007E00247F021204258F26E52575F00A84FD7C67
:10008E00007F0112062BE52575F00A84E5F0FD7C54
:10009E00007F0212062B7D0B7C007F0312062BE5E0
:1000AE002475F00A84FD7C007F0412062BE524756E
:1000BE00F00A84E5F0FD7C007F0512062B7D0B7C9B
:1000CE00007F0612062BE52675F00A84FD7C007F64
:1000DE000712062BE52675F00A84E5F0FD7C007FFD
:0E00EE000812062B7F147E001205C0020011BE
:10047E00E52760220526E526C394644019E4F52697
:10048E000524E524943C400EE4F5240525E5259449
:07049E003C4003E4F52522B8
:03000B000201905F
:10019000C0E0C0F0C083C082C0D075D000C000C035
:0D01A00001C002C003C004C005C006C007B6
:1001AD00758A66758CFC051FE51F7002051EC394CC
:1001BD0014E51E94004009751E00751F00120348BA
:1001CD000521E52170020520C39402E5209400402D
:1001DD00097520007521001205620523E5237002C3
:1001ED000522C3940AE52294004009752200752367
:0401FD000012047E6A
:10020100D007D006D005D004D003D002D001D00051
:0B021100D0D0D082D083D0F0D0E032FB
:1005C000EF1FAC0670011E4C600A7D027CC7DCFE8A
:0405D000DDFC80ECE2
:0105D4002204
:05063400E4AF45F545AF
:01063900229E
:10059400E4FF20B1010F20B0027F0220B2027F03EA
:0505A40020B3027F04FA
:0105A900222F
:100348008543441205948F43E544B40107E543709F
:1003580003754501E544B40207E54370037545029A
:10036800E544B40307E5437003754503E544B40465
:0803780007E54370037545041D
:01038000225A
:0605E900C2A58F80D2A71D
:0805EF007F027EEFDEFEDFFC5F
:0105F70022E1
:0A060400C2A61205E9C2A70205EF25
:1004EC00CFCDCFCECCCE12013B7C007D0A12013B8E
:0404FC00ED2430FFBC
:0A050000D2A61205E9C2A70205EF1A
:1005AA00AE07BE0104ED148006BE0209ED243F44E5
:0605BA0080FF120604227E
:1005D5007F381206047F0C1206047F061206047F7C
:0405E5000102060405
:0A060E00AC031205AAAF04020500B8
:0604C9008B468A478948BA
:1004CF001205AAE4FDAB46AA47A9488D82758300A1
:0C04DF001200FCFF60061205000D80E911
:0104EB0022EE
:0C03F2007F0AEA24FFFDE434FFFC7E00DB
:0803FE008E3F8F408C418D42BF
:100406007F017E00E4FBEBC39542E5416480F8740E
:0E0416008098500AAC3FAD401201290B80E8DF
:0104240022B5
:040528008A328B3355
:10052C001205AAAA34EAD39400400D1203F2AC329D
:08053C00AD331204EC1A80ED4E
:010544002294
:10030E001205AAC3EA64809480400B7F2B1205006D
:10031E008A2E8B2F800E7F2D120500C3E49BF52FA6
:10032E00E49AF52EAA2DEAD39400400D1203F2ACF6
:09033E002EAD2F1204EC1A80ED23
:010347002293
:040381008A378B38F4
:100385001205AAAA39EAD3940040297F101203F472
:10039500AC37AD38CFCDCFCECCCE12013BEF540F1D
:1003A500FEC3940AEE5004243080022437FF120560
:0403B500001A80D1D9
:0103B9002221
:0403BA008A3C8B3DB1
:1003BE001205AAAA3EEAD394004028EA24FFFDE4DF
:1003CE0034FFFC7F027E001203FEAC3CAD3DCFCD70
:1003DE00CFCECCCE12013BEF54012430FF120500DC
:0303EE001A80D2A0
:0103F10022E9
:09062200D2A0D2A1C2A0C2A12203
:07000300C2A0D2A1D2A0228D
:02045500AD07F1
:10045700E4FB7E007480A803088006CEA2E713CED3
:1004670013D8F8FFEDF582EF558224FF92A0D2A1B1
:06047700C2A10BBB08DC72
:01047D00225C
:10050A00E4FFD2A0FED2A130A00DA8067480088014
:0D051A0002C313D8FC4207C2A10EBE08E8C0
:0105270022B1
:0A061800EF24FF92A0D2A1C2A1229C
:0B05F800D2A0D2A1A2A0E433FFC2A158
:0106030022D4
:1004A5008F498C4A8D4B1206227FA01204551205E6
:1004B500F8AF491204551205F8AF4B120455120551
:0404C500F802000336
:020425008F49FD
:100427001206227FA01204551205F8AF491204558F
:100437001205F81206227FA11204551205F81205BB
:0D0447000A8F4A7F01120618120003AF4A07
:010454002285
:100545000909000A0A0A0A0A0A0A0A0C123F065B86
:0C0555004F666D7D077F6F0040010801BC
:09062B00AE0574092FF8A60622A1
:1002A800E4F580EF14B4080050549002C075F003D0
:1002B800A4C58325F0C583730202D80202DC0202BA
:1002C800E00202E40202E80202F00202F80203007D
:1002D800D2A4800ED2A48012D2A48016D2A4801AEE
:1002E800C2A4D2A3D2A28016C2A4D2A3C2A2800E54
:1002F800C2A4C2A3D2A28006C2A4C2A3C2A274127C
:060308002DF8E6F580224D
:1005620074092508F8E6FD7C00AF081202A8050808
:0A057200E508D39409400375080161
:01057C00225C
:10057D005389F0438901758A66758CFCC28DD28CC6
:07058D00D2A9D2AFC2B922CE
:0300000002021CDD
:0C021C00787FE4F6D8FD75814B02026388
:1000FC00BB010CE58229F582E5833AF583E02250B9
:10010C0006E92582F8E622BBFE06E92582F8E22202
:0D011C00E58229F582E5833AF583E493221C
:10012900EF8DF0A4A8F0CF8CF0A428CE8DF0A42EEA
:02013900FE22A4
:10013B00BC000BBE0029EF8DF084FFADF022E4CCA8
:10014B00F875F008EF2FFFEE33FEEC33FCEE9DEC71
:10015B00984005FCEE9DFE0FD5F0E9E4CEFD22EDB7
:10016B00F8F5F0EE8420D21CFEADF075F008EF2F01
:10017B00FFED33FD4007985006D5F0F222C398FDF2
:05018B000FD5F0EA228F
:1002280002000EE493A3F8E493A34003F68001F2DE
:1002380008DFF48029E493A3F85407240CC8C333D7
:10024800C4540F4420C8834004F456800146F6DFA6
:10025800E4800B0102040810204080900545E47EEC
:10026800019360BCA3FF543F30E509541FFEE4939B
:10027800A360010ECF54C025E060A840B8E493A362
:10028800FAE493A3F8E493A3C8C582C8CAC583CA8D
:10029800F0A3C8C582C8CAC583CADFE9DEE780BE45
:010561000099
:00000001FF
