:0D02FC0041444A20204E5443202052470028
:100114001202D97BFF7A0279FC7D017F0112025021
:100124007F9C1200978E228F23750C03AB23AA2287
:100134007D017F021202917FDC1200978E228F23B1
:10014400750C03AB23AA227D067F021202917FACB9
:100154001200978E228F23750C03AB23AA227D0AEB
:0E0164007F021202917FF47E011202C480B26B
:1002C400EF1FAC0670011E4C600A7D027CC7DCFE89
:0402D400DDFC80ECE1
:0102D8002203
:0602ED00C2A58F80D2A71C
:0802F3007F027EEFDEFEDFFC5E
:0102FB0022E0
:0A031500C2A61202EDC2A70202F315
:10027300CFCDCFCECCCE1200427C007D0A120042FD
:04028300ED2430FF37
:0A028700D2A61202EDC2A70202F394
:1002AE00AE07BE0104ED148006BE0209ED243F44E4
:0602BE0080FF120315226F
:1002D9007F381203157F0C1203157F061203157F51
:0402E90001020315F6
:0A031F00AC031202AEAF0402028725
:060250008B088A09890AEF
:100256001202AEE4FDAB08AA09A90A8D82758300D5
:0C026600120003FF60061202870D80E901
:010272002269
:0C021D007F0AEA24FFFDE434FFFC7E00B1
:080229008E0D8F0E8C0F8D105D
:100231007F017E00E4FBEBC39510E50F6480F87449
:0E0241008098500AAC0DAD0E1200300B80E814
:01024F00228C
:040291008A0A8B0B3F
:100295001202AEAA0CEAD39400400D12021DAC0A5C
:0802A500AD0B1202731A80ED8B
:0102AD00222E
:100172001202AEC3EA64809480400B7F2B12028786
:100182008A168B17800E7F2D120287C3E49BF51708
:10019200E49AF516AA15EAD39400400D12021DAC9A
:0901A20016AD171202731A80ED6C
:0101AB002231
:0401AC008A1A8B1B05
:1001B0001202AEAA1CEAD3940040297F1012021F3B
:1001C000AC1AAD1BCFCDCFCECCCE120042EF540F28
:1001D000FEC3940AEE5004243080022437FF12023A
:0401E000871A80D129
:0101E40022F8
:0401E5008A1F8B20C2
:1001E9001202AEAA21EAD394004028EA24FFFDE4D2
:1001F90034FFFC7F027E00120229AC1FAD20CFCD57
:10020900CFCECCCE120042EF54012430FF12028728
:030219001A80D276
:01021C0022BF
:020097008F08D0
:10009900E4F509F50AC2B6C2B5F50B7E007480A86D
:1000A9000B088006CEA2E713CE13D8F8FFEF550848
:1000B90024FF92B4D2B6C2B6050BE50BB408DCE452
:1000C900F50BD2B6C2B630B7147E80E4A80B08800F
:1000D90005CEC313CE13D8F9420AEE42097F017E39
:1000E900001202C4050BE50BC3941040D5D2B5E547
:1000F9000830E306E509FF7E0022E509C4F854F05B
:0A010900C868FEE50AC4540F48FF61
:0101130022C9
:03000000020309EF
:0C030900787FE4F6D8FD75812302011412
:10000300BB010CE58229F582E5833AF583E02250B2
:1000130006E92582F8E622BBFE06E92582F8E222FC
:0D002300E58229F582E5833AF583E4932216
:10003000EF8DF0A4A8F0CF8CF0A428CE8DF0A42EE4
:02004000FE229E
:10004200BC000BBE0029EF8DF084FFADF022E4CCA2
:10005200F875F008EF2FFFEE33FEEC33FCEE9DEC6B
:10006200984005FCEE9DFE0FD5F0E9E4CEFD22EDB1
:10007200F8F5F0EE8420D21CFEADF075F008EF2FFB
:10008200FFED33FD4007985006D5F0F222C398FDEC
:050092000FD5F0EA2289
:00000001FF
