:10009A00204A280000F921F980F9DFFA35FA8BFAAB
:1000AA00D6FB22FB67FBA8FBE8FC22FC5EFC8EFC6D
:1000BA00BFFCEEFD1AFD44FD6BFD90FDB3FDD4FDC2
:1000CA00F4FE11FE2DFE46FE5FFE76FE8DFEA2FEBA
:1000DA00B5FEC7FED9FEEAFEF9FF08FF161D080D98
:1000EA00040D041404140416041604140812041249
:0C00FA0004110411040F040F040D08FF92
:1001D70012025374082526F8E6FFF460238F2705DB
:1001E7002674082526F8E675F07DA4FFAEF0120206
:1001F7006A0526C28C7F057E0012026AD28C80D3E4
:04020700C28C80FE27
:03000B0002020BE3
:10020B00C0E0C0D075D000C000C006E52725E024B3
:10021B0028F8E6FE08E6F58AEEF58CB2A5D006D0F6
:06022B0000D0D0D0E0324B
:10026A00EF1FAC0670011E4C600A7D027CC7DCFEE3
:04027A00DDFC80EC3B
:01027E00225D
:10017600E4F57C20B1137F14FE12026A30B1FD7FD4
:10018600147E0012026A757C0120B0147F147E0072
:1001960012026A30B0FD7F147E0012026A757C027C
:1001A60020B2147F147E0012026A30B2FD7F147EE4
:1001B6000012026A757C0320B3147F147E001202BB
:1001C6006A30B3FD7F147E0012026A757C04AF7C30
:0101D6002206
:0C0106000A723F065B4F666D7D077F6F3D
:10011300EF14B40800505490012875F003A4C5836C
:1001230025F0C58373020140020144020148020124
:100133004C020150020158020160020168D2A480FE
:100143000ED2A48012D2A48016D2A4801AC2A4D242
:10015300A3D2A28016C2A4D2A3C2A2800EC2A4C2FA
:10016300A3D2A28006C2A4C2A3C2A274722DF8E6CF
:03017300F58022F2
:05000300007FE3DFFEB9
:0100080022D5
:04023100AD07AC0663
:10023500E4FBFAED25E0FFEC33FEC3EB9FEA9E50AD
:0D0245000CB2A51200030BBB00010A80E6FD
:010252002289
:100253005389F0438901758A66758CFCC28DD28CF3
:07026300D2A9D2AFC2B922FB
:0300000002000EED
:0C000E00787FE4F6D8FD75817C02005577
:10001A000201D7E493A3F8E493A34003F68001F224
:10002A0008DFF48029E493A3F85407240CC8C333E7
:10003A00C4540F4420C8834004F456800146F6DFB6
:10004A00E4800B010204081020408090009AE47EAC
:10005A00019360BCA3FF543F30E509541FFEE493AB
:10006A00A360010ECF54C025E060A840B8E493A372
:10007A00FAE493A3F8E493A3C8C582C8CAC583CA9D
:10008A00F0A3C8C582C8CAC583CADFE9DEE780BE55
:0101120000EC
:00000001FF
