:0E03C600436C6F636B3A0020203A20203A000F
:0903D400011A37011C3B011B1743
:10018F001203A31203617BFF7A0379C67D017F01FE
:10019F001203037BFF7A0379CD7D017F02120303E4
:1001AF00E51BFB7A00750C027D017F02120344E50B
:1001BF001CFB7A00750C027D047F02120344E51AC2
:0F01CF00FB7A00750C027D077F0212034480D17A
:03000B000201DE11
:0401DE00C0E0C0D0ED
:1001E200758A66758CFC0519E51970020518C394A9
:1001F200E8E51894034027751800751900051AE5FB
:100202001A943C4019751A00051CE51C943C400EDA
:0E021200751C00051BE51B94184003751B00AE
:05022000D0D0D0E03257
:10038E00EF1FAC0670011E4C600A7D027CC7DCFEBE
:04039E00DDFC80EC16
:0103A2002238
:10012E00E4F52720B1137F14FE12038E30B1FD7F4C
:10013E00147E0012038E75270120B0147F147E00EA
:10014E0012038E30B0FD7F147E0012038E752702CF
:10015E0020B2147F147E0012038E30B2FD7F147E07
:10016E000012038E75270320B3147F147E00120332
:10017E008E30B3FD7F147E0012038E752704AF27D9
:01018E00224E
:0603B700C2A58F80D2A751
:0803BD007F027EEFDEFEDFFC93
:0103C5002215
:0A03DE00C2A61203B7C2A70203BDB6
:10032600CFCDCFCECCCE12004D7C007D0A12004D33
:04033600ED2430FF83
:0A033A00D2A61203B7C2A70203BD4A
:10037800AE07BE0104ED148006BE0209ED243F4419
:0603880080FF1203DE22DB
:1003A3007F381203DE7F0C1203DE7F061203DE7F2B
:0403B300010203DE62
:0A03E800AC03120378AF0402033ADD
:060303008B088A09890A3B
:10030900120378E4FDAB08AA09A90A8D8275830056
:0C03190012000EFF600612033A0D80E98E
:0103250022B5
:0C02D0007F0AEA24FFFDE434FFFC7E00FE
:0802DC008E0D8F0E8C0F8D10AA
:1002E4007F017E00E4FBEBC39510E50F6480F87496
:0E02F4008098500AAC0DAD0E12003B0B80E856
:0103020022D8
:040344008A0A8B0B8B
:10034800120378AA0CEAD39400400D1202D0AC0A2A
:08035800AD0B1203261A80ED23
:01036000227A
:10022500120378C3EA64809480400B7F2B12033A53
:100235008A168B17800E7F2D12033AC3E49BF517A0
:10024500E49AF516AA15EAD39400400D1202D0AC33
:0902550016AD171203261A80ED04
:01025E00227D
:04025F008A1F8B2047
:10026300120378AA21EAD3940040297F101202D204
:10027300AC1FAD20CFCDCFCECCCE12004DEF540F5F
:10028300FEC3940AEE5004243080022437FF120385
:040293003A1A80D1C2
:010297002244
:040298008A248B2504
:10029C00120378AA26EAD394004028EA24FFFDE44E
:1002AC0034FFFC7F027E001202DCAC24AD25CFCDE6
:1002BC00CFCECCCE12004DEF54012430FF12033AB6
:0302CC001A80D2C3
:0102CF00220C
:100361005389F0438901758A66758CFCC28DD28CE4
:07037100D2A9D2AFC2B922EC
:030000000200A259
:0C00A200787FE4F6D8FD7581270200E9A4
:10000E00BB010CE58229F582E5833AF583E02250A7
:10001E0006E92582F8E622BBFE06E92582F8E222F1
:0D002E00E58229F582E5833AF583E493220B
:10003B00EF8DF0A4A8F0CF8CF0A428CE8DF0A42ED9
:02004B00FE2293
:10004D00BC000BBE0029EF8DF084FFADF022E4CC97
:10005D00F875F008EF2FFFEE33FEEC33FCEE9DEC60
:10006D00984005FCEE9DFE0FD5F0E9E4CEFD22EDA6
:10007D00F8F5F0EE8420D21CFEADF075F008EF2FF0
:10008D00FFED33FD4007985006D5F0F222C398FDE1
:05009D000FD5F0EA227E
:1000AE0002018FE493A3F8E493A34003F68001F2D8
:1000BE0008DFF48029E493A3F85407240CC8C33353
:1000CE00C4540F4420C8834004F456800146F6DF22
:1000DE00E4800B01020408102040809003D4E47EDB
:1000EE00019360BCA3FF543F30E509541FFEE49317
:1000FE00A360010ECF54C025E060A840B8E493A3DE
:10010E00FAE493A3F8E493A3C8C582C8CAC583CA08
:10011E00F0A3C8C582C8CAC583CADFE9DEE780BEC0
:0103DD00001F
:00000001FF
