:1002480048656C6C6F0057656C636F6D6520746FE3
:07025800204368696E61009C
:100097001202747B737D017F011202BD7BFF7A021E
:1000A70079487D017F021201EA750C027B417A00D3
:1000B7007D037F0112022B750C027BA87AFF7D0658
:1000C7007F0112010C750C027BA57A007D0C7F0164
:1000D700120146750C087BA57A007D087F02120184
:1000E7007F7BDF7D0A7F011202BD7BFF7A02794E9B
:1000F7007D107F011201EA7F181202B37FE87E03A9
:0501070012025F80F20E
:06029800C2A58F80D2A771
:08029E007F027EC7DEFEDFFCDB
:0102A6002235
:0A02B300C2A6120298C2A702029E22
:10020D00CFCDCFCECCCE1200427C007D0A12004263
:04021D00ED2430FF9D
:0A022100D2A6120298C2A702029EA4
:100274007F381202B37F0C1202B37F061202B37FDF
:04028400010202B3BE
:10028800EDBF0103148002243F4480FF1202B32211
:0A02BD00AC03120288AF0402022114
:0601EA008B088A09890A56
:1001F000120288E4FDAB08AA09A90A8D8275830062
:0C020000120003FF60061202210D80E9CD
:01020C0022CF
:0C01B7007F0AEA24FFFDE434FFFC7E0018
:0801C3008E0F8F108C118D12BC
:1001CB007F017E00E4FBEBC39512E5116480F874AC
:0E01DB008098500AAC0FAD101200300B80E877
:0101E90022F3
:04022B008A0A8B0BA5
:10022F00120288AA0CEAD39400400D1201B7AC0A4F
:08023F00AD0B12020D1A80ED57
:010247002294
:10010C00120288C3EA64809480400B7F2B12022178
:10011C008A0D8B0E800E7F2D120221C3E49BF50EEF
:10012C00E49AF50DAA0CEAD39400400D1201B7AC79
:09013C000DAD0E12020D1A80ED4A
:010145002297
:040146008A0A8B0B8B
:10014A00120288AA0CEAD3940040297F101201B93E
:10015A00AC0AAD0BCFCDCFCECCCE120042EF540FAE
:10016A00FEC3940AEE5004243080022437FF1202A0
:04017A00211A80D1F5
:01017E00225E
:04017F008A0A8B0B52
:10018300120288AA0CEAD394004028EA24FFFDE473
:1001930034FFFC7F027E001201C3AC0AAD0BCFCD4E
:1001A300CFCECCCE120042EF54012430FF120221F5
:0301B3001A80D2DD
:0101B6002226
:10025F00EF1FAC0670011E4C600A7D027CC7DCFEEE
:04026F00DDFC80EC46
:010273002268
:030000000202A752
:0C02A700787FE4F6D8FD75811202009704
:10000300BB010CE58229F582E5833AF583E02250B2
:1000130006E92582F8E622BBFE06E92582F8E222FC
:0D002300E58229F582E5833AF583E4932216
:10003000EF8DF0A4A8F0CF8CF0A428CE8DF0A42EE4
:02004000FE229E
:10004200BC000BBE0029EF8DF084FFADF022E4CCA2
:10005200F875F008EF2FFFEE33FEEC33FCEE9DEC6B
:10006200984005FCEE9DFE0FD5F0E9E4CEFD22EDB1
:10007200F8F5F0EE8420D21CFEADF075F008EF2FFB
:10008200FFED33FD4007985006D5F0F222C398FDEC
:050092000FD5F0EA2289
:00000001FF
