:1001B80000040004000400010D010D010A010D02F4
:1001C8000A010D030D010F010F010F010F010F01AE
:1001D8000F0111010D020D020A010D030D010F019E
:1001E8000F010F010F010F010F0111010D020D0287
:1001F8000A010D030D010D010F010F010F010F0180
:070208000D020F011101FFBF
:10015E00204A0D0000F921F980F9DFFA35FA8BFA01
:10016E00D6FB22FB67FBA8FBE8FC22FC5EFC8EFCA8
:10017E00BFFCEEFD1AFD44FD6BFD90FDB3FDD4FDFD
:10018E00F4FE11FE2DFE46FE5FFE76FE8DFEA2FEF5
:0D019E00B5FEC7FED9FEEAFEF9FF08FF1608
:10020F001202A874B8250AF58274013509F583E442
:10021F0093FFF46038750B008F0C050AE50A700226
:10022F00050924B8F58274013509F583E49375F057
:10023F007DA4FFAEF01202BF050AE50A70020509A0
:10024F00C28C7F057E001202BFD28C80B6C28C801A
:01025F00FEA0
:03000B000202608E
:10026000C0E0C0D075D000C000C006E50C25E02479
:100270000DF8E6FE08E6F58AEEF58CB2A5D006D0BC
:0602800000D0D0D0E032F6
:1002BF00EF1FAC0670011E4C600A7D027CC7DCFE8E
:0402CF00DDFC80ECE6
:0102D3002208
:1000FD00E4F56120B1137F14FE1202BF30B1FD7F14
:10010D00147E001202BF75610120B0147F147E00B1
:10011D001202BF30B0FD7F147E001202BF75610266
:10012D0020B2147F147E001202BF30B2FD7F147E08
:10013D00001202BF75610320B3147F147E001202FA
:10014D00BF30B3FD7F147E001202BF756104AF6135
:01015D00227F
:0C01AB000A573F065B4F666D7D077F6FB3
:10009A00EF14B4080050549000AF75F003A4C58360
:1000AA0025F0C583730200C70200CB0200CF02000D
:1000BA00D30200D70200DF0200E70200EFD2A480D9
:1000CA000ED2A48012D2A48016D2A4801AC2A4D2BC
:1000DA00A3D2A28016C2A4D2A3C2A2800EC2A4C274
:1000EA00A3D2A28006C2A4C2A3C2A274572DF8E664
:0300FA00F580226C
:05000300007FE3DFFEB9
:0100080022D5
:04028600AD07AC060E
:10028A00E4FBFAED25E0FFEC33FEC3EB9FEA9E5058
:0D029A000CB2A51200030BBB00010A80E6A8
:0102A7002234
:1002A8005389F0438901758A66758CFCC28DD28C9E
:0702B800D2A9D2AFC2B922A6
:0300000002000EED
:0C000E00787FE4F6D8FD75816102005592
:10001A0002020FE493A3F8E493A34003F68001F2EB
:10002A0008DFF48029E493A3F85407240CC8C333E7
:10003A00C4540F4420C8834004F456800146F6DFB6
:10004A00E4800B010204081020408090015EE47EE7
:10005A00019360BCA3FF543F30E509541FFEE493AB
:10006A00A360010ECF54C025E060A840B8E493A372
:10007A00FAE493A3F8E493A3C8C582C8CAC583CA9D
:10008A00F0A3C8C582C8CAC583CADFE9DEE780BE55
:0101B7000047
:00000001FF
